:020000040800F2
:1000000030D20020DD060008E5040008E7040008FF
:10001000EB040008EF040008F304000800000000EF
:10002000000000000000000000000000F7040008CD
:10003000F9040008000000007F7801086D2B00081B
:10004000F7060008F7060008F7060008F70600089C
:10005000F7060008F7060008F7060008F70600088C
:10006000F7060008F7060008F7060008F70600087C
:10007000F7060008F7060008F7060008F70600086C
:10008000F7060008F7060008F7060008F70600085C
:10009000F7060008F7060008F70600080F37000803
:1000A000F7060008F7060008F7060008F70600083C
:1000B000F706000807390008953F0008F706000812
:1000C000F7060008F7060008F7060008F70600081C
:1000D000F7060008372D0008F7060008F7060008A5
:1000E000F7060008F7060008F7060008F7060008FC
:1000F000F7060008F7060008F7060008F7060008EC
:10010000F7060008F7060008F7060008F7060008DB
:10011000F7060008F7060008F7060008F7060008CB
:10012000F7060008F7060008F7060008F7060008BB
:1001300000F002F800F074F80AA090E8000C824485
:100140008344AAF10107DA4501D100F069F8AFF262
:10015000090EBAE80F0013F0010F18BFFB1A43F0A5
:1001600001031847C0850100E08501000A444FF0F3
:10017000000C10F8013B13F0070408BF10F8014B06
:100180001D1108BF10F8015B641E05D010F8016B4B
:10019000641E01F8016BF9D113F0080F1EBF10F8AF
:1001A000014BAD1C0C1B09D16D1E58BF01F801CBD2
:1001B000FAD505E014F8016B01F8016B6D1EF9D555
:1001C0009142D6D37047000000230024002500266A
:1001D000103A28BF78C1FBD8520728BF30C148BFAA
:1001E0000B607047642917F04D84752917F04A8415
:1001F000782917F08384632917F04587732917F04E
:100200004A87002070471FB517F0B8FE0400002091
:10021000002117F095FF401C60601FBD10B510BD98
:1002200017F058FF1146FFF7EEFF00F0BAF817F08D
:1002300076FF03B4FFF7F2FF03BC02F021FD0000DC
:1002400010B58AB00446022C27D17648407B754908
:10025000097BCDE900107348C37A827A72A102A8A3
:1002600017F0ACFB6F48407D6E49097DCDE9001069
:100270006C48C37C827C72A102A817F09FFB69487E
:10028000407C6849097CCDE900106648C37B827BCD
:1002900071A102A817F092FB26E06248407B6149F9
:1002A000097BCDE900105F48C37A827A70A102A869
:1002B00017F084FB5B48407D5A49097DCDE9001069
:1002C0005848C37C827C70A102A817F077FB554880
:1002D000407C5449097CCDE900105248C37B827BA5
:1002E0005DA102A817F06AFB0AB010BD0FE04D48EF
:1002F000807D30B14B49887DFFF7A2FFFF2017F0CA
:10030000F7F8642300221146104617F0EBF9EEE7E8
:1003100011E0002002F098FD0446012C05D1604850
:10032000007840F080005E4908700A2300221146E0
:10033000104617F0D7F9ECE70EE05A48006808B904
:10034000012000E00020574908604FF4FA730022B2
:100350001146104617F0C6F9EFE770B5044600BF26
:1003600015F0F4FA17F064FA05460A234E4A002104
:10037000AFF23B0016F03CFE09234C4A0021AFF2DD
:100380006F0016F035FE0B23494A0021AFF2A3009F
:1003900016F02EFEFF2017F0ABF8284617F04CFAA7
:1003A00070BD10B502F0EEFB4FF4A06000F0B6F99E
:1003B0004FF4E13002F073FC02F006FD02F02AFD7A
:1003C0003C4841684820884703F0E4F9002004F0E5
:1003D0006EFB012004F06BFB15F083F906E036A0FC
:1003E00017F0E0FA4FF47A7002F01DFC04F0D6FD2D
:1003F0000028F4D106E035A017F0D4FA4FF47A7053
:1004000002F011FC04F0BDFF0028F4D10C23344AA3
:100410000021AFF2B90016F0EBFD15F07FFA0020D5
:1004200010BD0000C8B4002044484350204950206B
:100430003A25642E25642E25642E256400000000D4
:1004400044484350204757203A25642E25642E25E2
:10045000642E2564000000004E4554204D41534B4E
:100460003A25642E25642E25642E256400000000A4
:100470005374617469632049503A25642E25642EB3
:1004800025642E256400000053746174696320475D
:10049000573A25642E25642E25642E25640000001D
:1004A000B401002094812142EC050020EC040020DE
:1004B000EC070020900000204C77697020496E699D
:1004C00074206661696C656421000000544350200B
:1004D000536572766572206661696C6564212100DE
:1004E000EC090020704700BFFEE700BFFEE700BF39
:1004F000FEE700BFFEE77047704700000CB5002024
:10050000019000906C48006840F480306A490860AF
:1005100000BF6948006800F4003000900198401C5A
:100520000190009818B90198B0F5A06FF1D1624818
:10053000006800F4003010B10120009001E00020BC
:1005400000900098012843D15C48006840F01000FA
:100550005A4908600846006820F003000860084611
:10056000006840F002000860534840685249486003
:100570000846406848600846406840F4806048602B
:100580000846406820F47C1048600846406840F403
:10059000E81048600846006840F08070086000BFBE
:1005A0004548006800F000700028F9D042484068D3
:1005B00020F00300404948600846406840F00200CF
:1005C000486000BF3C48406800F00C000828F9D1A2
:1005D0000CBD10B5FFF792FF10BD10B5364800688E
:1005E00040F001003449086008464068344908403A
:1005F0003149486008460068324908402E49086081
:100600000846006820F4802008600846406820F40E
:10061000FE0048604FF41F008860FFF7DAFF4FF0DC
:1006200000602949086010BD10B50021002000229B
:10063000214B5B6803F00C0121B1042906D0082985
:1006400028D107E0214B224C236027E01F4B204C90
:10065000236023E0184B5B6803F47010164B5B6853
:1006600003F48032022303EB904022B9194B434339
:10067000174C23600DE0104B5B6803F4003323B18B
:10068000144B4343124C236003E0104B4343104C84
:10069000236003E00D4B0E4C236000BF00BF064BF0
:1006A0005B68C3F303130C4CE15C094B1B68CB4044
:1006B000074C236010BD00000010024000200240E3
:1006C0000000FFF8FFFFF6FE08ED00E000127A00E0
:1006D0000000002000093D00040000200948804778
:1006E00009480047FEE7FEE7FEE7FEE7FEE7FEE714
:1006F000FEE7FEE7FEE7FEE704480549054A064B2C
:1007000070470000DB0500083101000830CC0020F4
:1007100030D2002030CE002030CE002031490143BD
:10072000314A1160704770B5002100230F22C47850
:1007300004B32D4C246804F4E064C4F5E064210A99
:10074000C1F10403CA40447804FA03F184781440E8
:1007500021430901254C0678A155047804F01F05B2
:100760000124AC4005786D11AD0005F1E025C5F818
:10077000004109E0047804F01F050124AC401C4D41
:100780000678761145F8264070BD1A4A0A400243A1
:10079000154B1B1F1A60704739B1134A121D12689E
:1007A0000243114B1B1D1A6006E00F4A121D12680E
:1007B00082430D4B1B1D1A607047042808D14FF06F
:1007C000E021096941F004014FF0E022116107E0E6
:1007D0004FF0E021096921F004014FF0E02211619E
:1007E000704700000000FA050CED00E000E400E0B6
:1007F00080E100E080FFFF1FDF48006840F001005B
:10080000DD49086008464068DC490840DA4948602C
:1008100008460068DA490840D74908600846006879
:1008200020F4802008600846406820F4FE004860FC
:100830004FF41F0088607047CF49096821F4803168
:10084000CD4A11601146096821F480211160B0F58C
:10085000803F03D0B0F5802F0ED106E0C64909686D
:1008600041F48031C44A116007E0C349096841F48A
:10087000A021C14A116000E000BF00BF704710B561
:1008800001460022002300204A11012A02D1BA4C5D
:10089000236806E0022A02D1B74C236A01E0B64C75
:1008A000636A01F01F02012494401C400CB1012036
:1008B00000E0002010BD38B5002000900024002585
:1008C00000BF3120FFF7DBFF05460098401C009079
:1008D0000098B0F5A06F01D0002DF2D03120FFF7C5
:1008E000CEFF08B1012400E00024204638BD0146B7
:1008F0000020A14A106820F0F80040EAC100106012
:100900007047A04908607047024600209A4B58681B
:1009100020F47C1042EA01031843974B586070475B
:1009200098490866704701460020934A506820F0B5
:1009300003000843506070478F48406800F00C0087
:100940007047014600208C4A506820F0F0000843B0
:100950005060704701460020874A506820F4E060EC
:1009600008435060704701460020834A506820F4D5
:10097000605040EAC1005060704729B17E4A527A07
:1009800002437D4B5A7204E07B4A527A82437A4B8F
:100990005A7270477B49D831086070470146002081
:1009A000754A506820F44040084350607047002169
:1009B000714A20321170704A82F82010012802D04A
:1009C00004280AD104E001216B4A2032117005E0AD
:1009D0000521694A2032117000E000BF00BF704756
:1009E0006949086070476449096A0143624A1162B3
:1009F0007047654944390860704730B500210022CE
:100A0000002400235C4D6D6805F00C0121B1042920
:100A100005D0082923D105E05C4D056022E05B4D3F
:100A200005601FE0544D6D6805F47012524D6D68FD
:100A300005F48034022505EB92421CB9544D554310
:100A400005600BE04C4D6D6805F400351DB1504D4F
:100A50005543056002E04D4D5543056002E04B4DA6
:100A6000056000BF00BF444D6D6805F0F001090945
:100A7000484D6B5C0568DD4045603F4D6D6805F491
:100A8000E061090A434D6B5C4568DD4085603A4D85
:100A90006D6805F46051C90A3E4D6B5C4568DD40E8
:100AA000C560354D6D6805F44041890B3A4D6B5C6E
:100AB000C568B5FBF3F5056130BD29B12E4A526911
:100AC00002432D4B5A6104E02B4A526982432A4B60
:100AD0005A61704729B1284A92690243264B9A61AC
:100AE00004E0254A92698243234B9A61704729B1F9
:100AF000214AD2690243204BDA6104E01E4AD269DE
:100B000082431D4BDA61704729B11B4AD268024308
:100B1000194BDA6004E0184AD2688243164BDA6057
:100B2000704729B1144A12690243134B1A6104E059
:100B3000114A12698243104B1A61704712494039B9
:100B4000086070470F49C86470470B49C871704707
:100B50000948406A40F08070074948627047014682
:100B60000020054A92680A400AB1012000E00020F6
:100B70007047014988727047001002400000FFF87A
:100B8000FFFFF6FE000042428004424200127A005B
:100B900000093D00140000202400002010B5044688
:100BA000BE48844208D101218014FFF7ADFF002127
:100BB000A014FFF7A9FF16E0B948844208D101212B
:100BC0000014FFF7AEFF00212014FFF7AAFF0AE090
:100BD000B448844207D10121C013FFF7A2FF0021CE
:100BE000E013FFF79EFF10BD10B50022028802F44B
:100BF00041520B884C8823438C882343CC88234361
:100C00000C8923434C8923438C892343CC89234378
:100C10001A430280838B4FF2FF74234083830B8A35
:100C2000038210BD2DE9F04F85B005460C464FF00C
:100C3000000902274FF000084FF0010B0026B246D2
:100C4000A88B4FF240010840A88302202884B5F801
:100C50001C90A068022801D100BF38E0A08810B91C
:100C60004FF0010B01E04FF0020B8D48854200D19F
:100C700000E000BF6846FFF7C0FEDDF800A0E08896
:100C8000B0F5007F0AD14FEA1A2000EB8000400047
:100C9000A168B0FBF1F0401D86B20BE04FEA4B10AB
:100CA000BAFBF0F000EB80004000A168B0FBF1F06F
:100CB000401D86B20A20B6FBF0F606F00108A6EB4E
:100CC0000800C0F34F074FF6FF7000EA0828022F14
:100CD00001DBFF2F02DD02274FF00008E08840EA29
:100CE000080038432884A088A18908436188084304
:100CF0002188084340F4006040EA0909A5F81C90E7
:100D000005B0BDE8F08F0021018041808180C18065
:100D1000018141818181C1810721018270470021C8
:100D2000018041808180C180022181600021818118
:100D3000704721B1028842F04002028004E002883C
:100D40004FF6BF731A400280704721B1828B42F484
:100D50008062828304E0828B4FF6FF331A408283E5
:100D6000704730B5002400230C110125A540ABB21B
:100D70001AB185881D43858002E085889D43858062
:100D800030BD1AB183880B43838002E083888B4394
:100D900083807047818170470146888970474FF68C
:100DA000FF62914204D0028842F48072028004E023
:100DB00002884FF6FF631A400280704721B1828893
:100DC00042F00402828004E082884FF6FB731A40EE
:100DD0008280704702884FF2FF731A4002800288B7
:100DE0000A4302807047018841F4805101807047B6
:100DF00021B1028842F40052028004E002884DF6DC
:100E0000FF731A400280704702460020012901D07A
:100E1000108B00E0908A70470146088A7047B1F550
:100E2000804F04D1028842F48042028004E00288AC
:100E30004BF6FF731A400280704702460020138968
:100E40000B400BB1012000E000207047CA43028133
:100E50007047F0B50246002000240023002501F071
:100E60000F070126BE40B4B20B1101269E40B3B25B
:100E7000968806EA03051689264016B10DB10120B1
:100E800000E00020F0BD10B5002201F00F040123A6
:100E9000A3409AB2D343038110BD0000003001404B
:100EA00000380040003C004010B50446FB48844236
:100EB00009D101218803FFF727FE00214FF480406C
:100EC000FFF722FE32E0F648844209D101214804AE
:100ED000FFF727FE00214FF40030FFF722FE25E048
:100EE000F048844209D101218804FFF71AFE00214D
:100EF0004FF48020FFF715FE18E0EB48844209D13B
:100F00000121C804FFF70DFE00214FF40020FFF778
:100F100008FE0BE0E548844208D101210805FFF7EF
:100F200000FE00214FF48010FFF7FBFD10BD2DE9FE
:100F3000F04786B005460E460024A24600BFA146F3
:100F40000027B08900B100BF2F462C8A4CF6FF70F5
:100F50000440F08804432C82AC894EF6F310044020
:100F6000B08831890843718908430443AC81AC8A55
:100F70004FF6FF400440B0890443AC8201A8FFF75C
:100F80003CFDC648874202D1DDF810A001E0DDF843
:100F90000CA0A88900F4004040B10AEBCA0000EBA5
:100FA0000A1031684900B0FBF1F807E00AEBCA000B
:100FB00000EB0A1031688900B0FBF1F86420B8FB3F
:100FC000F0F004012009642101FB1089A88900F4D4
:100FD000004040B1322000EBC900B0FBF1F000F05E
:100FE0000700044308E0322000EB09106421B0FB45
:100FF000F1F000F00F0004432C8106B0BDE8F0874B
:101000004FF41651016000218180C18001810C21C3
:10101000418100218181704710B502460020108A6D
:101020004FF2FF0318400B884C8823438C882343DE
:10103000CC8823431843108210BD002101804180D9
:101040008180C180704721B1828942F4005282813F
:1010500004E082894DF6FF731A4082817047F0B533
:101060000346002400260025002040F66A17B942F6
:1010700000D100BF1846C1F3421401F01F0601273A
:1010800007FA06F5012C01D10C3004E0022C01D145
:10109000103000E014301AB107682F43076002E0F7
:1010A0000768AF430760F0BD1AB1838A0B438382A0
:1010B00002E0838A8B4383827047028A4FF6F07383
:1010C0001A400282028A0A430282704782894FF2E2
:1010D000FF731A40828182890A438281704721B15D
:1010E000828942F00202828104E082894FF6FD7318
:1010F0001A4082817047028A4FF6DF731A400282DB
:10110000028A0A430282704721B1028A42F4804275
:10111000028204E0028A4BF6FF731A400282704793
:10112000C1F308028280704701468888C0F3080036
:101130007047818941F0010181817047028BD2B2F1
:101140000283028B42EA012202837047028B02F47F
:101150007F420283028B0A430283704721B1828A55
:1011600042F02002828204E0828A4FF6DF731A4046
:101170008282704721B1828A42F01002828204E0AA
:10118000828A4FF6EF731A408282704721B1828AB9
:1011900042F00802828204E0828A4FF6F7731A4016
:1011A0008282704721B1828942F40042828103E049
:1011B0008289C2F30E028281704721B1828A42F491
:1011C0000062828204E0828A4FF2FF731A408282B8
:1011D0007047828A4FF6FB731A408282828A0A43E2
:1011E0008282704721B1828A42F00202828204E048
:1011F000828A4FF6FD731A408282704702460020B1
:10120000B1F5007F00D100BF13880B400BB1012066
:1012100000E00020704701F40072B2F5007F00D1B9
:1012200000BFCA430280704770B502460024002305
:101230000025002040F66A16B14200D100BFC1F37C
:10124000421501F01F03012606FA03F3012D02D116
:101250009689334006E0022D02D1168A334001E020
:10126000968A33400C12012606FA04F4168834409C
:1012700013B10CB1012000E0002070BD10B50022B8
:10128000002340F66A14A14200D100BF0A120124D3
:101290009440A3B2DC43048010BD0000003801403C
:1012A0000044004000480040004C00400050004016
:1012B00010B50446CC48844208D101210420FFF730
:1012C00023FC00210420FFF71FFC46E0C7488442AE
:1012D00008D101210820FFF717FC00210820FFF7A3
:1012E00013FC3AE0C248844208D101211020FFF7E4
:1012F0000BFC00211020FFF707FC2EE0BD488442C4
:1013000008D101212020FFF7FFFB00212020FFF75B
:10131000FBFB22E0B848844208D101214020FFF7BE
:10132000F3FB00214020FFF7EFFB16E0B3488442B7
:1013300008D101218020FFF7E7FB00218020FFF783
:10134000E3FB0AE0AE48844207D101218015FFF794
:10135000DBFB0021A015FFF7D7FB10BD10B5012165
:101360000846FFF7D1FB00210120FFF7CDFB10BDA0
:101370002DE9F0410246002500260020002300242C
:10138000002791F803C00CF00F0591F803C00CF092
:10139000100CBCF1000F03D091F802C04CEA050517
:1013A00091F800C0BCF1000F31D0146800202BE090
:1013B0004FF0010C0CFA00F3B1F800C00CEA030680
:1013C0009E4220D183004FF00F0C0CFA03F7BC4370
:1013D00005FA03FC4CEA040491F803C0BCF1280FA1
:1013E00006D14FF0010C0CFA00FCC2F814C00AE060
:1013F00091F803C0BCF1480F05D14FF0010C0CFA75
:1014000000FCC2F810C0401C0828D1D31460B1F809
:1014100000C0BCF1FF0F34DD546800202EE000F165
:10142000080C4FF0010808FA0CF3B1F800C00CEA00
:1014300003069E4221D183004FF00F0C0CFA03F7F4
:10144000BC4305FA03FC4CEA040491F803C0BCF168
:10145000280F05D100F1080C08FA0CF8C2F8148026
:1014600091F803C0BCF1480F07D100F1080C4FF010
:10147000010808FA0CF8C2F81080401C0828CED3E6
:101480005460BDE8F0814FF6FF7101800221817048
:101490000421C17070470246002093680B400BB1D5
:1014A000012000E0002070470146886880B2704744
:1014B00002460020D3680B400BB1012000E0002061
:1014C00070470146C86880B270470161704741614A
:1014D00070470AB1016100E041617047C160704727
:1014E0004FF480320A43826181618261826982693C
:1014F000704702460020434B18684FF6807318402F
:1015000040EA021008433F4B186070473E49C861EB
:101510007047F0B50A46002300240021002500F0A2
:101520000046B6F1004F02D1364EF16901E0354E6A
:101530007168C0F3034583B200F44016B6F5401F4E
:1015400008D121F070612F4E766826F070662D4F1D
:101550007E6012E000F48016B6F5801F06D10326E7
:1015600006FA05F4A14341F0706106E0460D36012C
:1015700003FA06F6B14341F0706122B1460D36011F
:1015800003FA06F6314300F00046B6F1004F02D1EF
:101590001C4EF16101E01B4E7160F0BD30B50022C0
:1015A0008B071C0F0F2303FA04F2164B08338C1021
:1015B00053F824309343134C08348D1044F82530ED
:1015C00023468C1053F824308C07240F00FA04F4BF
:1015D00023430C4C08348D1044F8253030BD0A49A3
:1015E000DC3108607047000000080140000C014039
:1015F000001001400014014000180140001C01408F
:1016000000200140000001400000204230B943F2B8
:10161000DB028100A1F1C0410A6005E043F2D20281
:101620008100A1F1C0410A606FF07042411C890045
:10163000A1F1C0410A608100A1F1C041C1F80421BB
:10164000704710280AD118214FF02042116640211E
:1016500051664FF0FC319166D16610E01821F74ACF
:10166000116040214FF02042C2F884104FF0FC314D
:10167000F24A083211604FF02042C2F88C107047D5
:101680001820EE492031086000200906C1F8A400A6
:101690004FF0FC30E94928310860091D0860091D38
:1016A00008607047D0E901121143C2681143026912
:1016B00011434269114382691143C2691143026AAD
:1016C0001143426A1143826A1143C26A1143026B99
:1016D000114302689200A2F1C0421160816808299A
:1016E0000BD101688900A1F1C041096841F04002B5
:1016F00001688900A1F1C0410A60416B0968426B31
:10170000526841EA0211426B926841EA0221426B3F
:10171000928941EA0241426B128A41EA0251426BCC
:10172000127D41EA0261426B926911430268521CC8
:101730009200A2F1C0421160C16AB1F5804F1BD185
:10174000816B0968826B526841EA0211826B926870
:1017500041EA0221826B128A41EA0251826B127DB8
:1017600041EA0261826B9269114302689200A2F120
:10177000C042C2F8041107E06FF0704201688900AE
:10178000A1F1C041C1F80421704730B50021002209
:101790000023446844F0080485682C43C5682C4342
:1017A00005692C43456944EA4524856944EA453185
:1017B000C4692468C5696D6844EA0524C5692D8932
:1017C00044EA0544C5692D7B44EA0562046A24683D
:1017D000056A6D6844EA0524056A2D8944EA0544D2
:1017E000056A2D7B44EA05630468102C05D14FF08F
:1017F00020442166A266E36608E0904C21604FF029
:101800002044C4F888208D4C0C34236030BD01681E
:1018100041F01001426841EA4221826841EA4231C6
:10182000864A20321160C1680968C268526841EA7C
:101830000221C268128941EA0241C268127B41EA70
:1018400002617E4A283211600169096802695268A2
:1018500041EA02210269128941EA02410269127BCE
:1018600041EA0261754A2C32116041690968426996
:10187000526841EA02214269128941EA0241426901
:10188000127B41EA02614FF02042C2F8B01070476B
:10189000002101600221416000218160C16001617D
:1018A00041618161C16101624FF48051416249002F
:1018B00081620021C16201630F21426B1160426BA2
:1018C0005160FF21426B91600F21426BD160426BEE
:1018D0001161426B51610021426B91610F21826B5A
:1018E0001160826B5160FF21826B91600F21826BCE
:1018F000D160826B1161826B51610021826B9161B9
:10190000704710210160002141608160C160016168
:1019100041618161FC21C2691160C2695160C26983
:101920009160C269D160026A1160026A5160026A04
:101930009160026AD160704700210160416081605E
:10194000FC21C2681160C2685160C2689160C268BF
:10195000D160026911600269516002699160026997
:10196000D160426911604269516042699160426987
:10197000D160704751B18200A2F1C042126842F0BA
:1019800001038200A2F1C042136009E08200A2F1CB
:10199000C04212682A4B1A408300A3F1C0431A6068
:1019A000704799B1102808D14FF02042126E42F0D2
:1019B00004024FF020431A661DE0204A126842F0EC
:1019C00004024FF02043C3F8802014E0102809D10E
:1019D0004FF02042126E1A4BDB1E1A404FF020438C
:1019E0001A6608E0154A1268154BDB1E1A404FF0C4
:1019F0002043C3F88020704748B11049203109685E
:101A000041F004014FF02042C2F8A01009E00B4958
:101A1000203109680A4AD21E11404FF02042C2F814
:101A2000A0107047B9B110280CD14FF02042126EAF
:101A300042F040024FF020431A661FE0800000A0F1
:101A4000FEFF0F00724A126842F040024FF020433E
:101A5000C3F8802012E0102808D14FF02042126E07
:101A60006C4B1A404FF020431A6607E0684A126830
:101A7000684B1A404FF02043C3F88020704701465E
:101A80000020102903D14FF02042506F02E0604A3D
:101A900014321068704710B5F2B1102807D14FF01A
:101AA00020435B6E0B434FF02044636632E0B0F599
:101AB000807F08D1564B1B1D1B680B434FF0204401
:101AC000C4F8843026E0524B24331B680B434FF09C
:101AD0002044C4F8A4301DE0102807D14FF0204363
:101AE0005B6E8B434FF02044636613E0B0F5807F5C
:101AF00008D1474B1B1D1B688B434FF02044C4F893
:101B0000843007E0424B24331B688B434FF0204462
:101B1000C4F8A43010BD10B5024600200023102ADE
:101B200003D14FF02044636E09E0B2F5807F03D10A
:101B3000374C241D236802E0354C2434236803EA23
:101B400001040CB1012000E0002010BD102807D1D5
:101B50004FF02042526E8A434FF020435A6613E002
:101B6000B0F5807F08D12A4A121D12688A434FF0CF
:101B70002043C3F8842007E0254A243212688A43B0
:101B80004FF02043C3F8A420704770B502460020F0
:101B9000002300240025102A03D14FF02046736E45
:101BA00009E0B2F5807F03D1194E361D336802E09B
:101BB000174E2436336803EA010403EAD10514B151
:101BC0000DB1012000E0002070BD102808D14FF0B9
:101BD0002042526E22EAD1024FF020435A6615E0AD
:101BE000B0F5807F09D10A4A121D126822EAD1029B
:101BF0004FF02043C3F8842008E0054A24321268DD
:101C000022EAD1024FF02043C3F8A420704700001D
:101C1000800000A0BFFF0F0010B50446FE488442BC
:101C200008D10121C014FEF76FFF0021E014FEF778
:101C30006BFFC4E0B4F1804F08D101210846FEF7E4
:101C400070FF00210120FEF76CFFB8E0F3488442EA
:101C500008D101210220FEF764FF00210220FEF7D7
:101C600060FFACE0EE48844208D101210420FEF779
:101C700058FF00210420FEF754FFA0E0E948844209
:101C800008D101210820FEF74CFF00210820FEF7B3
:101C900048FF94E0E448844208D101211020FEF777
:101CA00040FF00211020FEF73CFF88E0DF4884421F
:101CB00008D101212020FEF734FF00212020FEF76B
:101CC00030FF7CE0DA48844208D101214014FEF75D
:101CD0001BFF00216014FEF717FF70E0D548844217
:101CE00009D10121C804FEF70FFF00214FF40020A5
:101CF000FEF70AFF63E0D048844209D101210805BC
:101D0000FEF702FF00214FF48010FEF7FDFE56E0C3
:101D1000CA48844209D101214805FEF7F5FE002199
:101D20004FF40010FEF7F0FE49E0C548844208D1A8
:101D300001214020FEF7F5FE00214020FEF7F1FED4
:101D40003DE0C048844208D101218020FEF7E9FE31
:101D500000218020FEF7E5FE31E0BB48844208D137
:101D600001218015FEF7DDFE0021A015FEF7D9FE4A
:101D700025E0B648844209D101210804FEF7C4FEDB
:101D800000214FF48030FEF7BFFE18E0B0488442D7
:101D900009D101214804FEF7B7FE00214FF40030BD
:101DA000FEF7B2FE0BE0AB48844208D10121880463
:101DB000FEF7AAFE00214FF48020FEF7A5FE10BD1D
:101DC00000220288944B98420ED0994B98420BD037
:101DD000B0F1804F08D0914B984205D0904B98427B
:101DE00002D0904B984204D14FF68F731A404B8823
:101DF0001A438D4B984207D08C4B984204D04FF633
:101E0000FF431A40CB881A4302808B8883850B8856
:101E10000385814B98420BD0854B984208D08B4B61
:101E2000984205D08A4B984202D08A4B984201D101
:101E30000B7A038601238382704770B50024002249
:101E40000023058C4FF6FE7635400584028C83888E
:101E5000048B4FF68F752C40B51E2C400D882C43FB
:101E6000751E2A400D892A434D882A436A4DA8428F
:101E70000BD06F4DA84208D0744DA84205D0744DC8
:101E8000A84202D0734DA84213D14FF6F7752A40ED
:101E90004D892A434FF6FB752A408D882A434FF619
:101EA000FF652B404FF6FF552B408D892B43CD8985
:101EB0002B4383800483CD888586028470BD70B5F2
:101EC000002400220023058C4FF6EF763540058470
:101ED000028C8388048B48F6FF752C404FF6FF4533
:101EE0002C400D884FF6FF7606EA05252C434FF669
:101EF000DF752A400D8906EA05152A434D8806EA52
:101F000005152A43444DA84202D0494DA8421DD18F
:101F10004FF67F752A404D894FF6FF7606EA051584
:101F20002A434FF6BF752A408D8806EA05152A43D5
:101F30004FF6FF352B404FF2FF752B408D8906EA97
:101F400085052B43CD8906EA85052B4383800483D1
:101F5000CD880587028470BD70B50024002200235F
:101F6000058C4FF6FF6635400584028C8388848B90
:101F70004FF68F752C404FF6FC752C400D882C4386
:101F80004FF6FF552A400D894FF6FF7606EA0525E4
:101F90002A434D8806EA05252A431F4DA84202D050
:101FA000234DA8421DD14FF2FF752A404D894FF6AF
:101FB000FF7606EA05252A434FF6FF352A408D882D
:101FC00006EA05252A434EF6FF752B404DF6FF75B0
:101FD0002B408D8906EA05152B43CD8906EA0515A8
:101FE0002B4383808483CD888587028470BD70B540
:101FF000002200230024058C4EF6FF763540058430
:10200000038C8488828B48F6FF752A404FF6FF4583
:102010002A400D8820E00000002C01400004004010
:1020200000080040000C0040001000400014004078
:1020300000340140004C0140005001400054014078
:1020400000180040001C00400020004000400140FB
:1020500000440140004801404FF6FF7606EA05259E
:102060002A434DF6FF752B400D8906EA05352B43B3
:102070004D8806EA05352B43FA4DA84202D0FA4DA9
:10208000A84208D14BF6FF752C408D894FF6FF769C
:1020900006EA85152C4384808283CD88A0F84050C1
:1020A000038470BD828B4FF2FF331A408283828B90
:1020B0004FF6FF7303EA01231A4382837047F0B59A
:1020C0000C461546002200210026078C4EF6FF7CA8
:1020D00007EA0C070784828B018C4FF6FF7707EA2B
:1020E000043640F6FF473A404FF6FF7707EA0527E8
:1020F0003A434FF6FF7707EA03373A43D94FB842DE
:102100000ED0D94FB8420BD0B0F1804F08D0D74F86
:10211000B84205D0D64FB84202D0D64FB84206D109
:102120004DF6FF77394046F48057394305E047F6CE
:10213000FF57394044F48057394382830184F0BD0E
:10214000828B4FF6F3731A408283828B0A43828319
:102150007047F0B50C461546002200210026078C7A
:102160004FF6FF6C07EA0C070784828B018C4FF651
:10217000FF7707EA04264FF60C773A404FF6FF77D1
:1021800007EA03172F433A43B64FB8420ED0B64F73
:10219000B8420BD0B0F1804F08D0B44FB84205D050
:1021A000B34FB84202D0B34FB84206D14FF6FF57F3
:1021B000394046F48077394305E04FF2FF57394004
:1021C00044F48077394382830184F0BD028B4FF25F
:1021D000FF331A400283028B4FF6FF7303EA012399
:1021E0001A4302837047F0B50C46154600220021C1
:1021F0000026078C4FF6EF7C07EA0C070784028B5A
:10220000018C4FF6FF7707EA041640F6FF473A4085
:102210004FF6FF7707EA03373A434FF6FF7707EAAF
:1022200005273A438F4FB8420ED08F4FB8420BD09C
:10223000B0F1804F08D08D4FB84205D08C4FB842D6
:1022400002D08C4FB84206D14FF6DF77394046F0C6
:102250001007394305E04FF65F77394044F0100727
:10226000394302830184F0BD028B4FF6F3731A40A9
:102270000283028B0A4302837047F0B50C46154671
:1022800000220021068C4FF6FE773E400684028B2A
:10229000018C4FF60C7632407E1C06EA03162E4364
:1022A0003243704EB0420ED06F4EB0420BD0B0F100
:1022B000804F08D06D4EB04205D06D4EB04202D076
:1022C0006C4EB04206D14FF6FD76314044F0010627
:1022D000314305E04FF6F576314044F001063143D5
:1022E00002830184F0BD70B505460C465D48854209
:1022F0000ED05D4885420BD0B5F1804F08D05B48C9
:10230000854205D05A48854202D05A48854200D1BC
:1023100000E000BF208850B92389A2886188284640
:10232000FFF7ABFFE1882846FFF79EFF25E02088F6
:1023300004280AD12389A28861882846FFF753FF21
:10234000E1882846FFF742FF17E0208808280AD1D5
:102350002389A28861882846FFF7FBFEE18828468A
:10236000FFF7EEFE09E02389A28861882846FFF77F
:10237000A6FEE1882846FFF795FE70BD2DE9F041E5
:1023800005460C4600260127608808B9022600E0B1
:102390000026A088012801D1022700E0012720881B
:1023A000A0B92389A28861882846FFF766FFE188E3
:1023B0002846FFF759FF23893A4631462846FFF75A
:1023C00012FFE1882846FFF701FF13E02389A28866
:1023D00061882846FFF707FFE1882846FFF7F6FEE9
:1023E00023893A4631462846FFF747FFE1882846C9
:1023F000FFF73AFFBDE8F0810A884B881A438B88C3
:102400001A43CB881A430B891A434B891A438B8989
:102410001A43A0F8442070474FF6FF7181800021D5
:102420000180C1804180017270470021018041809C
:102430008180C180018141818181C18170470021FA
:1024400001804180012181800021C180018170478C
:102450000021018041808180C18001814181818191
:1024600070470000002C014000340140000400408F
:1024700000080040000C004021B1028842F0010237
:10248000028004E002884FF6FE731A400280704713
:1024900031B1B0F8442042F40042A0F8442005E0F5
:1024A000B0F84420C2F30E02A0F8442070471AB1DD
:1024B00083890B43838102E083898B438381704747
:1024C0008182704741EA0203A0F8483070471AB190
:1024D00083890B43838102E083898B438381704727
:1024E00001894FF6F8721140018170470A460021B8
:1024F00001894FF68F73194011430181704730B540
:1025000004460D4629462046FFF7F0FF208940F09B
:102510000700208130BD2DE9F04104460D461646E6
:102520001F46602D06D13B46012231462046FFF76B
:102530005AFE05E03B46012231462046FFF79DFE4C
:1025400029462046FFF7D2FF208940F0070020816E
:10255000BDE8F08130B50C4600210189C9B24FF6C3
:10256000FF7505EA0325154325432943018130BD45
:102570002DE9F04105460E4617469846002443468D
:102580003A4631462846FFF7E5FF2C894FF6F870AA
:10259000044044F007044FF68F70044044F0700488
:1025A0002C81BDE8F081F0B504460D4616461F4665
:1025B0003B46324629462046FFF7CCFF208940F4AF
:1025C00080402081F0BD0185828270470A4600214B
:1025D00001884FF68F731940114301807047F0B5A1
:1025E0000C4615461E460021002200230189028B5D
:1025F000038C4FF6F877394021434FF6FC473A40B9
:1026000040F201173A434FF6DD773B404FF6FF7734
:1026100007EA06172F433B43018102830384F0BD81
:102620000A460021018B4FF68F7319401143018335
:1026300070470A460021018B48F6FF7319404FF698
:10264000FF7303EA02231943018370470A460021FE
:10265000818B4FF68F7319401143818370470A466F
:102660000021818B48F6FF7319404FF6FF7303EA90
:10267000022319438183704721B1028842F080020E
:10268000028004E002884FF67F731A400280704790
:1026900021B1828842F00402828004E082884FF6F1
:1026A000FB731A408280704721B1828842F0080291
:1026B000828004E082884FF6F7731A408280704768
:1026C00021B1828842F00102828004E082884FF6C4
:1026D000FE731A40828070470A460021018B4FF634
:1026E000F77319401143018370470A460021018B9B
:1026F0004FF2FF7319404FF6FF7303EA02231943A9
:10270000018370470A460021818B4FF6F773194009
:102710001143818370470A460021818B4FF2FF737A
:1027200019404FF6FF7303EA022319438183704770
:102730000A460021018B4FF6FB73194011430183B8
:1027400070470A460021018B4FF6FF3319404FF6C0
:10275000FF7303EA02231943018370470A460021ED
:10276000818B4FF6FB7319401143818370470A46F2
:102770000021818B4FF6FF3319404FF6FF7303EAB8
:1027800002231943818370470A460021018B4FF6CB
:102790007F7319401143018370470A460021018B62
:1027A000C1F30E014FF6FF7303EA022319430183BD
:1027B00070470A460021818B4FF67F731940114301
:1027C000818370470A460021818BC1F30E014FF6C9
:1027D000FF7303EA02231943818370470A460021ED
:1027E000018C4FF6FD7319401143018470470A466E
:1027F0000021018C4FF6F773194011430184704793
:102800000A460021018C4FF6DF7319404FF6FF7323
:1028100003EA02131943018470470A460021018C20
:102820004FF67F7319404FF6FF7303EA0213194303
:10283000018470470A460021018C4FF6FF5319406E
:102840004FF6FF7303EA02231943018470470A46D7
:102850000021018C4FF2FF7319404FF6FF7303EA1A
:1028600002231943018470470A460021018C4DF66A
:10287000FF7319404FF6FF7303EA023319430184D3
:10288000704730B5002301248C40A3B2048C9C43D4
:102890000484048C02FA01F5ADB22C43048430BDEB
:1028A00030B5002304248C40A3B2048C9C430484E0
:1028B000048C02FA01F5ADB22C43048430BD70B52E
:1028C0000346002000241846183001258D40ACB284
:1028D0001D8CA5431D8409B1082909D100EB6100B5
:1028E000056825F0700505600568154305600EE074
:1028F0000D1FC5F34E052844056825F4E045056025
:1029000005684FF6FF7606EA02263543056070BD7E
:1029100021B1028842F00202028004E002884FF6F0
:10292000FD731A400280704721B1028842F0040210
:10293000028004E002884FF6FB731A400280704761
:1029400021B1828842F08002828004E082884FF6C2
:102950007F731A408280704702884FF6F7731A40DF
:10296000028002880A430280704782884FF68F7384
:102970001A40828082880A438280704702894FF61B
:10298000F8731A40028102890A4302817047028962
:102990004FF67F731A40028102890A430281704711
:1029A00081847047818570478186704701877047B1
:1029B00081877047A0F84010704702884FF6FF43A8
:1029C0001A40028002880A43028070470146888EBE
:1029D00070470146088F70470146888F704701464F
:1029E000B1F8400070470146888C70470146088D59
:1029F000704702460020138A0B400BB1012000E013
:102A000000207047CA430282704730B5024600205A
:102A100000230024158A05EA0103958905EA0104CB
:102A200013B10CB1012000E0002030BDCA43028286
:102A300070470000002044490860091D0860091D16
:102A40000860091D086041483F491431086070471B
:102A500000213D498279002A3AD00A46126803686B
:102A60009A430B461A600A1D126803689A430B1DAD
:102A70001A60027911440A6803681A430A60324AEC
:102A80000832126803689A432F4B08331A601A1DE4
:102A9000126803689A432C4B0C331A604279102A4F
:102AA0000ED11A1F126803681A43274B08331A60A5
:102AB0001A1D126803681A43234B0C331A600DE089
:102AC0002149427911440A6803681A430A6005E003
:102AD000027911440A6803689A430A60704700212A
:102AE000016001710C21417100218171704716490B
:102AF000103109680143144A1032116070470146D1
:102B00000020114A143212680A400AB1012000E084
:102B1000002070470C4914310860704701460020BE
:102B20000022094B1B6803EA0102074B14331B68A0
:102B30000B4013B10AB1012000E0002070470249A8
:102B4000143108607047000000040140FFFF0F00CF
:102B500010B512F075FE10BD10B512F0B6FE10BD26
:102B600010B50446204614F08BFD10BD10B53E484C
:102B70000078012805D112F0CAFD12F006FF12F00C
:102B8000E1FD10BD10B56FF00400FDF716FE3748EB
:102B900000683749B0FBF1F03649087033480068E7
:102BA0003349B0FBF1F441F2883044430520324907
:102BB00008804FF0E020006940F002004FF0E02173
:102BC000086108464461006940F00100086110BDD9
:102BD0002DE9F047074600264FF0E020D0F814908A
:102BE0002448007807FB00F800BFFFF7B1FF4FF063
:102BF000E020856911E04FF0E0208469AC420CD000
:102C0000AC4202D2281B064403E0A9EB040028448E
:102C100006442546464500D300E0ECE700BFFFF739
:102C20009BFFBDE8F08770B504460F480078A0B15F
:102C30001248007888B910480088844206DB0E48A4
:102C4000008894FBF0F52846FFF78AFF0A480088C1
:102C500094FBF0F100FB114084B24FF47A7104FB55
:102C600001F0FFF7B5FF70BDCE020020000000208C
:102C700000127A00280000202A000020C102002053
:102C8000014600BF704700BF4B4A128802F0400265
:102C9000002AF9D0C2B2484B1B1D1A80704710B5EC
:102CA00086B00446012144F20400FDF713FF4FF4FF
:102CB0000070ADF8140003208DF8160018208DF870
:102CC000170005A93D48FEF753FB4FF48060ADF8AF
:102CD000140004208DF8170005A93848FEF748FBBA
:102CE00025208DF8000003208DF801008DF80200EA
:102CF00001208DF803006846FDF715FD01940020C2
:102D0000ADF80800ADF80A00ADF80C00ADF8100001
:102D10000C20ADF80E0001A92748FEF708F90122A2
:102D200040F225512448FEF79AF901212248FEF786
:102D30008AF906B010BD10B512F0E9FC40F2255139
:102D40001D48FEF771FA10B31B48FEF7EDF9C4B247
:102D50001B48008800F40040C8B91948008800F4F6
:102D6000804060B10A2C03D000201549088020E083
:102D70001348008840F400401149088019E00D2CE8
:102D800006D10F48008840F480400D49088010E0CB
:102D90000B480088C0F30D000A490C54084800880D
:102DA000401C0749088008460088C72801DD00202C
:102DB000088012F0C7FC10BD003801400008014037
:102DC00030000020F009002008B501214820FDF75F
:102DD00081FE2020ADF8000010208DF803000320B4
:102DE0008DF8020069460948FEF7C2FA202107481B
:102DF000FEF76BFB2020ADF8000069460448FEF7A3
:102E0000B7FA20210248FEF760FB08BD000C014024
:102E10000018014008B501214420FDF75BFE1C208D
:102E2000ADF8000048208DF8030069463548FEF7EC
:102E30009FFA0120ADF8000028208DF803006946B4
:102E40003148FEF795FA08BD10B5044614B10120CB
:102E50002E4908702D480078002837D010212948C5
:102E6000FEF719FB78B108212648FEF714FB50B194
:102E700004212448FEF70FFB28B101212248FEF768
:102E80000AFB012822D10A20FFF7CDFE00201F49AE
:102E9000087010211B48FEF7FEFA08B9012010BD8A
:102EA00008211848FEF7F7FA08B90220F7E70421CD
:102EB0001448FEF7F0FA08B90320F0E701211248A0
:102EC000FEF7E9FA01281BD10420E8E710210D489C
:102ED000FEF7E1FA012813D108210A48FEF7DBFAD0
:102EE00001280DD104210748FEF7D5FA012807D1A2
:102EF00001210548FEF7CFFA10B9012003490870F7
:102F00000020CCE7001801400008014032000020FA
:102F100070B50546002405E0601CC4B2C82C01DD74
:102F2000002070BD02213A48FDF787FF0028F3D04A
:102F300029463748FDF72EFF002405E0601CC4B287
:102F4000C82C01DD0020ECE701213148FDF775FFB9
:102F50000028F3D02E48FDF71FFFC0B2E1E700B50F
:102F600087B001210820FDF7B5FD01218803FDF799
:102F7000BEFD4FF46040ADF8180018208DF81B001E
:102F800003208DF81A0006A92248FEF7F1F94FF444
:102F900060412048FEF799FA0020ADF804004FF494
:102FA0008270ADF806000020ADF808000220ADF8F0
:102FB0000A000120ADF80C004002ADF80E003820E8
:102FC000ADF810000020ADF812000720ADF8140095
:102FD00001A90F48FDF708FE01210D48FDF7A9FEE4
:102FE000FF20FFF795FF07B000BD10B50446084865
:102FF00000884FF6C77108400549088008460088D8
:103000002043088001210248FDF793FE10BD000017
:1030100000380040000C014070B505460C46002603
:103020000020FE49086004F01F0040EA0506304613
:10303000FFF76EFFFF20FFF76BFF064604F08000EE
:1030400018B1FF20FFF764FF06460120F34908602E
:10305000304670BD2DE9F04104460D461646002766
:103060000020EE49086005F01F0040EA04073846DA
:10307000FFF74EFF3046FFF74BFF0120E849C1F84C
:103080009C01BDE8F08170B505460C460020E3497F
:1030900008603A20FFF73CFF05E06D1E0020FFF7B7
:1030A00037FF2070641C002DF7D100202070012014
:1030B000DA49086070BD70B504460D460020D74956
:1030C00008607A20FFF724FF04E0641E2878FFF7E9
:1030D0001FFF6D1C002CF8D10120D049086070BD85
:1030E00010B5044604F06000CE49097888420ED03D
:1030F00003221F21A020FFF7ADFFC4F341121F21BF
:103100008020FFF7A7FF04F06000C649087010BDDB
:1031100010B504462046FFF7E3FF21460020FFF7E5
:103120007BFF10BD70B504460D462046FFF7D8FF63
:103130002A4621464020FFF78DFF70BD70B5054639
:103140000C4600262946D420FFF7ECFFE1B2D6203A
:10315000FFF7E8FF2112D720FFF7E4FF01E0701C22
:1031600086B2EA20FFF7D4FF00F0010018B14FF655
:10317000FF708642F3DB70BD2DE9F0410446002765
:10318000D220FFF7C5FF05462146D420FFF7CAFF2E
:1031900045F00101D220FFF7C5FF01E0781C87B29E
:1031A000EA20FFF7B5FF00F0010018B14FF6FF70FD
:1031B0008742F3DB25F00101D220FFF7B3FFD820CF
:1031C000FFF7A6FF0646D920FFF7A2FF46EA002632
:1031D0003046BDE8F08110B57220FFF799FF00F08E
:1031E0001F0010BD10B50020FFF7C6FF00F480746B
:1031F000201210BDF0B589B00024012140F2091061
:10320000FDF768FC4FF48050ADF8200010208DF8D9
:10321000230003208DF8220008A98348FEF7A8F8B0
:103220004FF480518048FEF750F94FF4C070ADF86C
:10323000200008A97D48FEF79BF84020ADF820004B
:1032400048208DF8230008A97848FEF791F8062158
:103250000846FEF7A3F94020019000208DF80800F1
:103260000C208DF8090001208DF80A0001A8FFF755
:10327000EFFB4020FFF763FC17208DF800000020D3
:103280008DF801008DF8020001208DF803006846DA
:10329000FDF749FA4FF4E0716448FEF716F9FFF7BD
:1032A0005EFE00216248FDF744FD0020ADF80C00F1
:1032B0004FF48270ADF80E000020ADF81000ADF8AC
:1032C0001200ADF814004FF40070ADF8160038206D
:1032D000ADF818000020ADF81A000720ADF81C006A
:1032E00003A95348FDF780FC01215148FDF721FD5A
:1032F0005048056802204B49087200214948417234
:103300008172290CC172290A017345730820FFF7E5
:103310006CFE00204149091D08600A20FFF783FC6C
:1033200001203F49C1F8A0010A20FFF77CFCFF22E1
:1033300000211046FFF78EFE04E0601C84B20120DD
:10334000FFF771FC1D20FFF7E3FE00F0010008B954
:10335000FA2CF2DBFA2C02DB012009B0F0BDFFF7FA
:103360003AFF0746394634A014F01CFB00202D49D3
:10337000486000210820FFF7D5FE00210920FFF753
:10338000D1FE10210A20FFF7CDFE1A210B20FFF7F6
:10339000C9FE11210420FFF7C5FE1A210520FFF701
:1033A000C1FEFF210620FFF7BDFE1F210720FFF70A
:1033B000B9FE00210C20FFF7B5FE00210D20FFF71C
:1033C000B1FE00213820FFF7ADFE3F212820FFF796
:1033D000A9FE30212920FFF7A5FEF9213020FFF7B3
:1033E000A1FEF7213120FFF79DFE0D21C020FFF740
:1033F00099FE0021C120FFF795FE3321C220FFF77F
:1034000091FEEE21CA20FFF78DFE0521CB20FFF7AC
:1034100089FE1521C420FFF785FE19E09C01244296
:1034200000002442B80A0020000C014000200140A6
:1034300000380040E8F7FF1F454E4332384A363027
:103440002056657273696F6E3A25640D0A0000009C
:103450001221C620FFF766FE0C21C720FFF762FE8F
:10346000B348017AE420FFF75DFEB148417AE520D8
:10347000FFF758FEAE48817AE220FFF753FEAC48D2
:10348000C17AE320FFF74EFEA948017BE020FFF759
:1034900049FEA748417BE120FFF744FE4FF48071CD
:1034A0000020FFF74BFE4FF480711020FFF746FE1F
:1034B0001F20FFF715FECB221B218020FFF7CAFD3E
:1034C00004221F218020FFF7C5FDFFF78BFE08B106
:1034D00098A000E09AA0064631469CA014F062FA3B
:1034E00000203AE770B504460D4614F0A1F90646EF
:1034F00000BF1F20FFF70CFE00F008000028F8D1E5
:1035000040F2EE50844209D90422C2218020FFF704
:10351000A1FD09220E218020FFF79CFD1121022030
:10352000FFF700FE1A210320FFF7FCFD11202044C5
:10353000C1B20620FFF7F6FD41F611202044C0F38A
:1035400007210720FFF7EEFD002211467A20FFF742
:1035500081FD29462046FFF7AEFD08221F2180206D
:10356000FFF778FD1C20FFF7D3FD00F0020020B12B
:1035700008221F21A020FFF76DFD304614F05CF9F2
:1035800070BD2DE9F04105460F4614F051F9804613
:103590003920FFF7BDFD10B90020BDE8F08100BF64
:1035A0001D20FFF7B5FD00F004000028F8D16048A9
:1035B00001790020FFF7B6FD5D488088C0F3072140
:1035C0000120FFF7AFFD00213A20FFF725FD584904
:1035D000486000213A20FFF71FFD5549496841EA3C
:1035E00000205349486000213A20FFF715FD0446AA
:1035F00000213A20FFF710FD44EA0024241F002197
:103600003A20FFF709FD064600213A20FFF704FDA6
:1036100046EA0026681EA04200D26C1E06F080001A
:1036200008B9002403E039462046FFF72CFD404846
:1036300001790C20FFF776FD3D488088C0F3072113
:103640000D20FFF76FFD40221E218020FFF702FDB5
:10365000404614F0F1F820469FE770B580221B2108
:10366000A020FFF7F7FC1C20FFF752FD044604F0F2
:10367000400030B140221C21A020FFF7EBFC01F0FC
:1036800019FB04F0080020B108221C21A020FFF73C
:10369000E1FC04F00100002823D001221C21A0201D
:1036A000FFF7D8FC3920FFF733FD06460D20FFF762
:1036B0002FFD05020C20FFF72BFD0543681C85B28A
:1036C000E9B20C20FFF72EFD29120D20FFF72AFD8D
:1036D00040221E218020FFF7BDFC314621A014F0BE
:1036E00061F904F0020060B102221C21A020FFF762
:1036F000B1FC12221D21A020FFF7ACFC21A014F088
:1037000051F980221B211046FFF7A4FC70BD10B5B3
:1037100011F0FDFF4020FFF712FA01E0FFF79DFFD7
:103720001B4800680028F9D012F00CF810BD00000A
:10373000B80A002046756C6C204475706C65780082
:1037400048616C66204475706C657800454E433264
:10375000384A3630204475706C65783A25730D0A06
:1037600000000000BDD3CAD5B4EDCEF3A3A1BDD3F4
:10377000CAD5B5BDCAFDBEDDB0FCB8F6CAFD3A2556
:10378000640D0A00B7A2CBCDB4EDCEF3210D0A0033
:103790001801244200B597B001214FF4F070FDF7F5
:1037A00099F901210802FDF788F94FF63370ADF859
:1037B000000018208DF8030003208DF802006946F0
:1037C0003648FDF7D5FD4FF68370ADF80000694629
:1037D0003348FDF7CDFD4FF23F00ADF800006946DC
:1037E0003048FDF7C5FD40F23F40ADF800006946A6
:1037F0002D48FDF7BDFD00200190029003200390AD
:103800000020049005900690079004200890002066
:1038100009900A9010200B9000200C900E900D90B3
:103820000F9010904FF48050119000201290139040
:10383000149001A81590169008A8FDF733FF0121F8
:103840000420FEF797F817B000BD10B506E0047825
:103850004FF0D0435C54491C401C521E002AF6D144
:1038600010BD06E04FF0D0435B5C00F8013B491C03
:10387000521E002AF6D1704713B50C46012221468C
:103880006846FFF7E2FF1CBD18B504460122214639
:103890006846FFF7E6FF9DF8000018BD00140140E0
:1038A00000180140001C0140002001407FB5054682
:1038B0000C4601210220FDF71AF9ADF80850ADF8C9
:1038C00004400020ADF80A00ADF8060001A9134835
:1038D000FEF776FA012211461048FEF7E8FD1D209A
:1038E0008DF8000001208DF8010003208DF8020002
:1038F00001208DF803006846FCF715FF01210748F9
:10390000FEF7BAFD7FBD10B501210448FFF77DF831
:1039100001210248FFF78AF810BD000000040040B2
:1039200010B58CB004461E230BAA03A9204600F054
:10393000ABFE0090009810B101200CB010BD9DF8B6
:103940002C00044400200B900EE040489DF82C20F1
:1039500050F8221003A800F0FFFD00B908E09DF820
:103960002C00401CC0B20B909DF82C000728ECD313
:1039700000BF9DF82C00072863D2DFE800F00405A3
:103980003C5E6564630000BF31A014F00BF831A009
:1039900014F008F83FA014F005F84EA014F002F857
:1039A0005CA013F0FFFF6BA013F0FCFF79A013F0F5
:1039B000F9FF86A013F0F6FF8BA013F0F3FF90A0A1
:1039C00013F0F0FF94A013F0EDFF99A013F0EAFFBD
:1039D0009EA013F0E7FFA4A013F0E4FFB0A013F043
:1039E000E1FFBDA013F0DEFFC8A013F0DBFFD4A001
:1039F00013F0D8FF9AE216A013F0D4FFE0A013F062
:103A0000D1FF00200B900EE0ED4800689DF82C20BF
:103A100000EBC2004168EBA013F0C4FF9DF82C003E
:103A2000401CC0B20B90E648007D9DF82C108842E7
:103A3000EADC07A013F0B6FF78E205A013F0B2FFAE
:103A4000C4E171E245E219E2ECE10000340000203B
:103A50000D0A00002D2D2D2D2D2D2D2D2D2D2D2D33
:103A60002D2D2D2D2D2D2D2D2D2D2D2D55534D4104
:103A700052542056332E312D2D2D2D2D2D2D2D2D03
:103A80002D2D2D2D2D2D2D2D2D2D2D2D2D2D2D2073
:103A90000D0A00002020202055534D415254CAC722
:103AA000D3C9414C49454E54454BBFAAB7A2B5C4F2
:103AB000D2BBB8F6C1E9C7C9B5C4B4AEBFDAB5F771
:103AC000CAD4BBA5BDBBD7E9BCFE2CCDA8B9FD208F
:103AD0000D0A0000CBFC2CC4E3BFC9D2D4CDA8B9D9
:103AE000FDB4AEBFDAD6FACAD6B5F7D3C3B3CCD0DD
:103AF000F2C0EFC3E6B5C4C8CEBACEBAAFCAFD2C89
:103B0000B2A2D6B4D0D02ED2F2B4CB2CC4E3BFC96B
:103B10000D0A0000D2D4CBE6D2E2B8FCB8C4BAAFEA
:103B2000CAFDB5C4CAE4C8EBB2CECAFD28D6A7B355
:103B3000D6CAFDD7D62831302F3136BDF8D6C629A2
:103B4000A1A2D7D6B7FBB4AEA1A2BAAFCAFDC8EB4B
:103B50000D0A0000BFDAB5D8D6B7B5C8D7F7CEAAD8
:103B6000B2CECAFD292CB5A5B8F6BAAFCAFDD7EEBC
:103B7000B6E0D6A7B3D63130B8F6CAE4C8EBB2CEB9
:103B8000CAFD2CB2A2D6A7B3D6BAAFCAFDB7B5202C
:103B90000D0A0000BBD8D6B5CFD4CABE2ED0C2D431
:103BA000F6B2CECAFDCFD4CABEBDF8D6C6C9E8D6D5
:103BB000C3B9A6C4DC2CD0C2D4F6BDF8D6C6D7AAE9
:103BC000BBBBB9A6C4DC2E0D0A000000BCBCCAF504
:103BD000D6A7B3D63A7777772E6F70656E65647621
:103BE0002E636F6D0D0A000055534D415254D3D0D2
:103BF00037B8F6CFB5CDB3C3FCC1EE3A0D0A00001D
:103C00003F3A202020202020BBF1C8A1B0EFD6FAF7
:103C1000D0C5CFA20D0A000068656C703A20202044
:103C2000BBF1C8A1B0EFD6FAD0C5CFA20D0A0000F3
:103C30006C6973743A202020BFC9D3C3B5C4BAAF2E
:103C4000CAFDC1D0B1ED0D0A0A00000069643A2036
:103C500020202020BFC9D3C3BAAFCAFDB5C4494490
:103C6000C1D0B1ED0D0A0A006865783A2020202005
:103C7000B2CECAFD3136BDF8D6C6CFD4CABE2CBA34
:103C8000F3B8FABFD5B8F12BCAFDD7D6BCB4D6B4B9
:103C9000D0D0BDF8D6C6D7AABBBB0D0A0A0000001B
:103CA0006465633A20202020B2CECAFD3130BDF8D1
:103CB000D6C6CFD4CABE2CBAF3B8FABFD5B8F12B4A
:103CC000CAFDD7D6BCB4D6B4D0D0BDF8D6C6D7AA14
:103CD000BBBB0D0A0A00000072756E74696D653A0F
:103CE000312CBFAAC6F4BAAFCAFDD4CBD0D0BCC663
:103CF000CAB13B302CB9D8B1D5BAAFCAFDD4CBD0FC
:103D0000D0BCC6CAB13B0D0A0A000000C7EBB0B474
:103D1000D5D5B3CCD0F2B1E0D0B4B8F1CABDCAE4C5
:103D2000C8EBBAAFCAFDC3FBBCB0B2CECAFDB2A2EB
:103D3000D2D4BBD8B3B5BCFCBDE1CAF82E0D0A0085
:103D40002D2D2D2D2D2D2D2D2D2D2D2D2D2D2D2DA3
:103D50002D2D2D2D2D2D2D2D2D2D414C49454E54E4
:103D6000454B2D2D2D2D2D2D2D2D2D2D2D2D2D2D4D
:103D70002D2D2D2D2D2D2D2D2D2D2D200D0A00001D
:103D80002D2D2D2D2D2D2D2D2D2D2D2D2D2D2D2D63
:103D90002D2D2D2D2D2D2D2D2DBAAFCAFDC7E5B5FD
:103DA000A52D2D2D2D2D2D2D2D2D2D2D2D2D2D2DCB
:103DB0002D2D2D2D2D2D2D2D2D2D2D2D200D0A00B0
:103DC0009000002025730D0A00000000EFA013F002
:103DD000E9FD00200B901AE0FC4909689DF82C20B1
:103DE00001EBC20101AB02AA486803A900F072FC12
:103DF000F64800689DF82C1050F8312003A9F4A073
:103E000013F0D0FD9DF82C00401CC0B20B90EF4881
:103E1000007D9DF82C108842DEDCAFF2CC3013F030
:103E2000C1FD83E0AFF2D83013F0BCFD0BAA03A9AB
:103E3000204600F02BFD9DF82C00C8B9694603A868
:103E400000F0BDFB0B909DF82C0020B9E5A0009977
:103E500013F0A8FD0EE09DF82C00042801D00220EC
:103E60006BE5E3A013F09EFD0120D849C87501E081
:103E7000022062E5DDA013F095FD57E0DBA013F012
:103E800091FD0BAA03A9204600F000FD9DF82C002F
:103E9000C8B9694603A800F092FB0B909DF82C006E
:103EA00020B9D8A0009913F07DFD0EE09DF82C00FC
:103EB000042801D0022040E5D5A013F073FD0020B6
:103EC000C249C87501E0022037E5C8A013F06AFDB9
:103ED0002CE0C6A013F066FD0BAA03A9204600F053
:103EE000D5FC9DF82C00C8B9694603A800F067FB13
:103EF0000B909DF82C0078B9B449009881F8EC003B
:103F0000084690F8EC0018B1C6A013F04BFD07E08E
:103F1000CBA013F047FD03E002200EE502200CE5E4
:103F2000B2A013F03FFD01E0012006E500BF002034
:103F300003E510B50121C948FEF764FD4FF6FF7196
:103F4000C648FEF72FFD0021C448FEF729FD0020DA
:103F50009E49C1F8F00010BD10B50121BF48FEF721
:103F600048FD012808D19948D0F8F0004FF6FF71BC
:103F700008449649C1F8F000B848FEF734FD93496B
:103F8000D1F8F01008449149C1F8F0000846D0F883
:103F9000F00010BD10B50121B048FEF736FD012834
:103FA0000AD18A49086980470021AC48FEF7F8FC2D
:103FB0006421AA48FEF7F6FC0121A848FEF736FD69
:103FC00010BD7FB505460C4601210420FCF78FFD8E
:103FD000ADF80850ADF804400020ADF80A00ADF887
:103FE000060001A99D48FDF7EBFE012241219B48F7
:103FF000FEF75DFA1E208DF8000003208DF8010009
:104000008DF8020001208DF803006846FCF78BFB59
:1040100001219248FEF730FA7FBD10B5044604EB4B
:10402000C40000EB04100122C2EB800081B24FF407
:104030007A70FFF7C6FF01206449C87510BD30B51E
:1040400095B0054613AB12AA09A9284600F042FB19
:10405000044614B1204615B030BD0020149026E06F
:104060005A4909689DF8502001EBC20113AB11AA0F
:10407000486801A900F02EFB04460CB12046EAE78F
:1040800009A901A800F068FA60B99DF844009DF8FC
:104090004810884201DD0220DDE79DF850004B49C1
:1040A00088750AE09DF85000401CC0B21490474843
:1040B000007D9DF850108842D2DC00BF4348007D4F
:1040C0009DF85010884201D10420C4E714A9284665
:1040D00000F04DFC04460CB12046BCE79DF85000B2
:1040E0003A4948750020B6E72DE9F0419AB03748C3
:1040F000847D007DA04202DC1AB0BDE8F081334926
:10410000096801EBC40106AB07AA486808A900F0DA
:10411000E1FA08A952A013F045FC0026BAE02B48AA
:10412000008B0121B1400840D8B122214EA013F0EC
:1041300039FC304600F00EFC24492431471839463A
:104140004AA013F02FFC222147A013F02BFC30468D
:1041500000F000FC1D492431084410A941F8260054
:104160008EE0304600F0F6FB18492431085810A9BB
:1041700041F826001548C07D30B910A850F8261027
:104180003BA013F00FFC7BE074E000002D2D2D2DE3
:104190002D2D2D2D2D2D2D2D2D2D2D2D2D2D2D2D4F
:1041A0002D2D2D2D2DBAAFCAFD204944202D2D2DAA
:1041B0002D2D2D2D2D2D2D2D2D2D2D2D2D2D2D2D2F
:1041C0002D2D2D2D2D2D2D2D200D0A0090000020A0
:1041D00025732069642069733A0D0A3058253038F8
:1041E000580D0A004845583A305825580D0A000025
:1041F0003136BDF8D6C6B2CECAFDCFD4CABE210D67
:104200000A0000004445433A256C750D0A00000081
:104210003130BDF8D6C6B2CECAFDCFD4CABE210D4C
:104220000A00000052756E2054696D652043616C70
:1042300063756C6174696F6E204F4E0D0A0000004B
:1042400052756E2054696D652043616C63756C61B5
:1042500074696F6E204F46460D0A0000000800404A
:104260000D0A257328000000256300002573000057
:10427000256C750010A850F8261095A013F092FB3D
:104280009DF81C00401EB04202D093A013F08AFBA0
:10429000701CC6B29DF81C008642FFF640AF8FA08E
:1042A00013F080FBFFF745FE8D48407D0B280DD2B3
:1042B000DFE800F0060D151E27323F4E5F728700C3
:1042C0008749096851F834008047054690E0844AE0
:1042D000126852F8341010988847054688E0804BE1
:1042E0001B6853F83420DDE91001904705467FE054
:1042F0007B4F3F6857F8343010A807C898470546E9
:1043000076E0DFF8DCC1DCF800C05CF8347010A89F
:104310000FC8B84705466BE01498DFF8C4C1009099
:10432000DCF800C05CF8347010A80FC8B847054628
:104330005EE0DDE91401DFF8A8C1CDE90001DCF899
:1043400000C05CF8347010A80FC8B84705464FE0AD
:10435000DDE914121698DFF888C1CDE90012029049
:10436000DCF800C05CF8347010A80FC8B8470546E8
:104370003EE0DDE91423DDE91610DFF864C1CDE984
:104380000023CDE90210DCF800C05CF8347010A8FE
:104390000FC8B84705462BE0DDE91523DDE9171006
:1043A000CDE90123CDE903101498DFF834C1009062
:1043B000DCF800C05CF8347010A80FC8B847054698
:1043C00016E0DDE91623DDE91810CDE90223CDE979
:1043D0000410DDE91401DFF808C1CDE90001DCF8C3
:1043E00000C05CF8347010A80FC8B847054600BF7D
:1043F00000BFFFF7B1FD9DF8180001280CD1384827
:10440000C07D20B9294637A013F0CCFA07E0294631
:1044100036A013F0C7FA02E033A013F0C3FA304815
:1044200090F8EC0088B12E48D0F8F0000A21B0FBDB
:10443000F1F201FB12072A48D0F8F000B0FBF1F8C6
:104440003A4641462CA013F0ADFA00BF54E670B5D1
:104450003148008800F40040002833D02E48057809
:1044600000202E4948551E4881682C48884704463C
:104470001CB91B49C868804721E02848FFF750FA5B
:104480000546012D00D02C46CCB1012C06D0022CC3
:1044900008D0032C0AD0042C10D10BE020A013F07C
:1044A00081FA0BE021A013F07DFA07E022A013F0BF
:1044B00079FA03E023A013F075FA00BF00BF0020D3
:1044C0001549088070BD0146086870470160704753
:1044D00030582558000000002C0000002900000082
:1044E000900000203D256C753B0D0A003D3058259D
:1044F000583B0D0A0000000046756E6374696F6ECC
:104500002052756E2054696D653A25642E253164FC
:104510006D730D0A0000000030000020F00900203B
:10452000BAAFCAFDB4EDCEF3210D0A00B2CECAFD7A
:10453000B4EDCEF3210D0A00B2CECAFDCCABB6E08D
:10454000210D0A00CEB4D5D2B5BDC6A5C5E4B5C40B
:10455000BAAFCAFD210D0A0002460AE010780B78B6
:10456000984201D001207047107800B902E0521C37
:10457000491CF3E700BF0020F5E706E002780A7067
:10458000027802B902E0401C491CF7E700BF7047FF
:104590000146002005E00A7802B903E0421CD0B2CF
:1045A000491CF8E700BF704710B50246012000E043
:1045B00050430B1EA1F10104E1B2F9D110BD2DE968
:1045C000F04307460E4600254FF00A083C460020FF
:1045D00030601FE02078392802DC207830280ADAA1
:1045E0002078462802DC2078412804DA20785828F0
:1045F00009D1012D07D12078412801DB4FF01008A7
:10460000681CC5B205E0207800B904E00120BDE8CF
:10461000F083641CDEE700BF3C46B8F1100F0FD1F9
:10462000032D01DA0220F2E72078302806D16078E5
:10463000582803D1A41CA81EC5B204E00320E6E755
:104640000DB90420E3E71BE00DB1681EC5B2207868
:10465000392806DC2078302803DB2078A0F13009E7
:1046600002E02078A0F1370929464046FFF79CFF79
:10467000316809FB00103060641C207800B900E04C
:10468000E2E700BF0020C2E710B50446002010702A
:104690000BE020780870641C491C1078401C1070D6
:1046A0001078984201DB012010BD2078202802D02C
:1046B00020780028EDD10020087000BFF4E7014603
:1046C000491C00E0491C0878202801D10029F9D1B3
:1046D000087870472DE9FF4F85B08046894600274E
:1046E000002004900390012002904FF0000B002561
:1046F00044461DE02078202816D005F07F000528CC
:1047000012DA0DB945F0800505F07F00042803D1C9
:1047100020782A2800D00EE0207805F07F010DF8DF
:104720000100681CC5B202E0852D00D103E0641CC5
:1047300020780028DED100BF8DB1002005F07F0178
:104740000DF80100CBA16846FFF706FF18B900215C
:104750000898017002E001210898017000254FF0CF
:10476000000A444614E0641C0AF1010000F0FF0A4C
:104770002078202802D020782A2809D12046FFF767
:104780009EFF0646282E03D02A2E01D0CDF810A079
:104790002078282802D020780028E4D144460498C4
:1047A00010B10498401C04444FF0000A002654E065
:1047B000207810B94FF0010A50E02078282803D162
:1047C00016B9781CC7B213E02078292808D13EB961
:1047D00017B1781EC7B201E04FF0010A47B93DE0BA
:1047E0002078222804D10EB9012000E000200646DE
:1047F00047B9207820282FD0207889F8000009F1C7
:10480000010929E020782C2804D101200290681C9D
:10481000C5B214E02078202811D0207828280ED0A6
:104820004DB9BBF1050F06DA20780DF80B000BF13E
:10483000010000F0FF0B0298401CC0B20290012F53
:104840000AD10298022807D10298401CC0B20290F7
:104850000398401CC0B20390641CA9E700BF0398F2
:10486000012809D100200DF80B0082A16846FFF74E
:1048700073FE08B900200390079903980870002080
:1048800089F80000504609B0BDE8F08FF0B5034646
:104890001546002000220026002455E01F782C2F0A
:1048A00001D104B901221F78292F01D01F780FB937
:1048B00004B94AE0002E34D11F78302F02DB1F7874
:1048C000392F11DD1F78612F02DB1F78662F0BDD7A
:1048D0001F78412F02DB1F78462F05DD1F78582FE8
:1048E00002D01F78782F0CD102B12EE01F78612FF3
:1048F00003DB1F78203F0F7001E01F780F70491C09
:104900001FE01F78222F04D102B11EE001260124EE
:1049100017E01F78202F14D01F782C2F11D0FF26DE
:1049200013E01F78222F00D1002402B10DE044B122
:104930001F785C2F02D15B1C471CF8B21F780F70E8
:10494000491C471CF8B25B1CA8E700BF00270F708A
:104950002E70F0BD02460020002105E0474B5B5C55
:104960000344D8B24B1CD9B29142F7DB70472DE912
:10497000F043B5B005460F460024002604E00021B0
:104980003E488155701CC6B20A2EF8DB06E06D1C4D
:10499000287818B9012035B0BDE8F0832878282898
:1049A000F5D16D1C61E034AA69462846FFF76EFF19
:1049B000064635449DF8D00020B1012827D0FF28B5
:1049C0004CD149E09DF8000000B333A96846FFF7D9
:1049D000F6FD06460EB10220DDE72046FFF7BAFFDE
:1049E00026490A31339A0A50A1F12400008B012193
:1049F000A140884321491A39088304211F480155E1
:104A0000601CC4B20A2C01DD0320C4E726E068461E
:104A1000FFF7BEFD401C00F0FF082046FFF79AFF9D
:104A200016490A3100EB010949466846FFF7A5FD22
:104A300012481A38018B0120A040014388B20F4967
:104A40001A3908830D4800F80480601CC4B20A2C8F
:104A500001DD03209FE701E002209CE700BF2878EA
:104A6000292801D0287800B900E09CE700BF3C70FD
:104A7000002090E7766F696400000000AA00002023
:104A800070B503460C4603E014F8015B03F8015BC4
:104A9000151EA2F10102F7D170BD30B5034601E049
:104AA00003F8011B141EA2F10102F9D130BD10B5AB
:104AB00004467C4951F824104A007B4951F82400EF
:104AC0000021FFF7EAFF794951F824207649083997
:104AD00051F824000021FFF7E0FF0121724808305F
:104AE000015510BD10B501460023002207E06E48B5
:104AF00050F8210030F8120000B15B1C521C6948CC
:104B000050F821009042F2D864205843654C54F884
:104B10002140B0FBF4F0C0B210BD2DE9F0470446CF
:104B20000F460025A94660480830005D20B95E4860
:104B300010380168204688471FB94FF0FF30BDE8A4
:104B4000F0875B4850F82400B7FBF0F086B2584875
:104B500050F82400B7FBF0F100FB117008B1701C95
:104B600086B2504850F82400451E22E04E4850F8C6
:104B7000240030F8150020B909F101001FFA80F96E
:104B800001E04FF00009B14512D14FF0000808E0F4
:104B9000454850F8240005EB080120F8116008F1A1
:104BA0000108B045F4D3424850F824006843C6E7F2
:104BB0006D1E002DDADA4FF0FF30C0E72DE9F0412D
:104BC00004460E4638480830005D38B9364810387B
:104BD0000168204688470120BDE8F081334850F83D
:104BE0002400B04217D9324850F82400B6FBF0F147
:104BF0002D4850F8240030F81120002507E000234C
:104C0000294850F824004F1920F817306D1C9542A0
:104C1000F5DB0020E0E70220DEE770B505460C4634
:104C200004B970BD2048083850F82500261A3146CE
:104C30002846FFF7C3FF00BFF3E770B504460E46F2
:104C400031462046FFF769FF0546681C08B9002079
:104C500070BD1548083850F824002844F8E72DE9BD
:104C6000F04104460F46164631462046FFF755FFF1
:104C70000546681C10B90020BDE8F0810A490839D2
:104C800051F82410481932463946FFF7F9FE3946E3
:104C90002046FFF7C2FF0448083850F82400284493
:104CA000EAE700006C810108940100207C81010882
:104CB0007481010810B5D14801F08FFB10BD10B50B
:104CC000CF4801680020FFF7A8FFCE480168002008
:104CD000FFF7A3FFCC4801680020FFF79EFFCB48F9
:104CE00001680020FFF799FF10BD70B505F074F959
:104CF000054629460020FFF7A0FFC1490860294664
:104D0000C3A012F04FFE41F61C0421460020FFF71D
:104D100094FFBC4908602146C4A012F043FE4FF442
:104D20007A610020FFF789FFB74908604FF40071EE
:104D30000020FFF782FFB5490860B148006840B124
:104D4000B048006828B1B048006810B10846006853
:104D500018B9FFF7B4FF012070BD0020FCE7C021A7
:104D60008171A822C2710122027264224272B54985
:104D7000097A0170B349497A4170B249897A8170E0
:104D8000B049C97AC170AF49097B0171AD49497B0E
:104D90004171C0218172A822C272012202731E22B7
:104DA0004273FF218173FF22C27302740022427496
:104DB000C0218174A822C2740122027542750021AB
:104DC0008175704710B58D4804F009F8072012F07E
:104DD000BBF910BDFEB50746002400250026874814
:104DE00004F064FB00209849887598A012F0DAFD61
:104DF000BDE0A0A012F0D6FD804844688568C66872
:104E0000002C48D0022090498875084640790979DD
:104E10008D4AD278CDE9002102908B488378427880
:104E2000017899A012F0BEFD210E87484173210C34
:104E30000173210AC17201468C72407B00900846C2
:104E4000037BC27A817A9EA012F0ACFD290E7E48C7
:104E50004174290C0174290AC17301468D73407C89
:104E600000900846037CC27B817BA1A012F09AFDD2
:104E7000310E75484175310C0175310AC174014616
:104E80008E74407D00900846037DC27C817CA4A086
:104E900012F088FD6CE05948006A407B042863DD0D
:104EA000FF20694988750846407B01066648007BFB
:104EB00041EA00416448C07A41EA00206249897AA7
:104EC00008434E4948606048407C01065E48007CCB
:104ED00041EA00415C48C07B41EA00205A49897B95
:104EE0000843464988605848407D01065648007D81
:104EF00041EA00415448C07C41EA00205249897C83
:104F000008433E49C86092A012F04CFD4E484179DA
:104F100000794D4AD278CDE9002002914A48837841
:104F20004278017858A012F03DFD4748407B009040
:104F30004548037BC27A817A8DA012F033FD424846
:104F4000407C00904048037CC27B817B94A012F09F
:104F500029FD3D48407D00903B48037DC27C817C1B
:104F60009BA012F01FFD03E0FA20FDF75CFE40E776
:104F700000BFFFF727FFFEBD10B512F059FC044635
:104F800007232248026802F5FE720021AFF2BB102F
:104F900012F02EF8204612F04FFC10BD10B586B06E
:104FA000FFF7A3FE10B1012006B010BDFEF722F9F5
:104FB00008B10220F8E70021084610F064F9224801
:104FC000FFF7CDFE00200590049003908C488D499A
:104FD000002203ABCDE90021029004AA05A90748ED
:104FE00005F047F904462CB1044805F08CF9034854
:104FF00005F0F6F9FFF7C0FF0020D5E7E0B4002088
:105000002C020020E0010020A4010020A0010020CB
:105010006D656D705F6D656D6F7279C4DAB4E6B4FD
:10502000F3D0A1CEAA3A25640D0A000072616D5F2B
:1050300068656170C4DAB4E6B4F3D0A1CEAA3A25AB
:10504000640D0A00B80A0020C8B40020D5FDD4DAE7
:10505000B2E9D5D244484350B7FECEF1C6F72CC7CB
:10506000EBC9D4B5C82E2E2E2E2E2E2E2E2E2E2E41
:105070000D0A0000D5FDD4DABBF1C8A1B5D8D6B76A
:105080002E2E2E0D0A000000CDF8BFA8656EB5C407
:105090004D4143B5D8D6B7CEAA3A2E2E2E2E2E2E5F
:1050A0002E2E2E2E2E2E2E2E2E2E25642E25642EC6
:1050B00025642E25642E25642E25640D0A0000002B
:1050C000CDA8B9FD44484350BBF1C8A1B5BD495076
:1050D000B5D8D6B72E2E2E2E2E2E2E2E2E2E2E2E8E
:1050E0002E2E25642E25642E25642E25640D0A009F
:1050F000CDA8B9FD44484350BBF1C8A1B5BDD7D335
:10510000CDF8D1DAC2EB2E2E2E2E2E2E2E2E2E2EB6
:105110002E2E25642E25642E25642E25640D0A006E
:10512000CDA8B9FD44484350BBF1C8A1B5BDB5C435
:10513000C4ACC8CFCDF8B9D82E2E2E2E2E2E2E2EA2
:105140002E2E25642E25642E25642E25640D0A003E
:1051500044484350B7FECEF1B3ACCAB12CCAB9D360
:10516000C3BEB2CCAC4950B5D8D6B7210D0A0000A9
:10517000BEB2CCAC4950B5D8D6B72E2E2E2E2E2E80
:105180002E2E2E2E2E2E2E2E2E2E2E2E2E2E2E2E3F
:105190002E2E25642E25642E25642E25640D0A00EE
:1051A000D7D3CDF8D1DAC2EB2E2E2E2E2E2E2E2EC8
:1051B0002E2E2E2E2E2E2E2E2E2E2E2E2E2E2E2E0F
:1051C0002E2E25642E25642E25642E25640D0A00BE
:1051D000C4ACC8CFCDF8B9D82E2E2E2E2E2E2E2E02
:1051E0002E2E2E2E2E2E2E2E2E2E2E2E2E2E2E2EDF
:1051F0002E2E25642E25642E25642E25640D0A008E
:10520000E75001080B64000886B000250022114613
:1052100010200BF013FD804641F69872634940461A
:105220000BF0CFFDFF2140460BF057FE0A20C8F8D7
:105230001C00A5E004A940460BF07AFE064616B90C
:105240000A200499C861002EF3D10023584A594915
:1052500004980BF066FD57480068000E8DF81700A3
:1052600054480068000C8DF8160052480088000A67
:105270008DF815004F4800788DF814004C480188CF
:105280009DF81700CDE900019DF816309DF8152016
:105290009DF8141048A012F085FB6EE0524800788B
:1052A00000F08000802818D15048006812F042FDBC
:1052B000824600200123524600904C480168049821
:1052C0000CF086F9064616B149A012F06BFB464871
:1052D000007820F080004449087003A904980CF07D
:1052E00092F8071E33D112F0A3FA81464FF47A7177
:1052F000424812F0D7FD0398046819E06089C5F5AB
:105300007A71884207D9C5F57A723C4B58196168A1
:1053100012F02FFD05E06289384B5819616812F0D0
:1053200028FD60890544B5F57A7F00D902E024683C
:10533000002CE3D100BF484612F07EFA00252F4929
:105340002FA012F02FFB03980DF065FE15E007F17A
:105350000C0090B904980CF044FA04980BF0CFFCC0
:105360009DF8170000909DF816309DF815209DF8C7
:10537000141025A012F016FB00E08FE700BF00BF5D
:1053800058E770B5002412F053FA05460823284A5E
:105390000021284811F02CFE0446214626A012F0D8
:1053A00001FB284612F048FA204670BD90810108A2
:1053B000BC010020B8010020D6F7BBFA25642E25D9
:1053C000642E25642E2564C1ACBDD3C9CFB7FECEF3
:1053D000F1C6F72CD6F7BBFAB6CBBFDABAC5CEAA60
:1053E0003A25640D0A000000B4010020B00100203D
:1053F000B7A2CBCDCAA7B0DC0D0A000014B50020BF
:1054000025730D0A00000000D6F7BBFA3A25642E7A
:1054100025642E25642E2564B6CFBFAAD3EBB7FE34
:10542000CEF1C6F7B5C4C1ACBDD30D0A0000000073
:10543000A8BD0020095200087463705F736572761E
:1054400065725F746872656164CFDFB3CCB4EDCE12
:10545000F3C2EB3A25640D0A0000000010B50446C3
:1054600004EB8400FD4951F8200070B100BF00BF7B
:1054700004EB8401F94A52F8210005F077F8002086
:1054800004EB8401F54A42F82100002004EB84017A
:10549000F24A02EB8101887404EB840102EB810182
:1054A000C87404EB840102EB8101886004EB840181
:1054B00002EB8101486004EB8400114601EB80009F
:1054C000E7490A68C2608988018210BD70B500BFD3
:1054D00000BF00243FE004EB8400E04901EB8000C2
:1054E000857C35B304EB840001EB8000C07C401C5C
:1054F00004EB8401D94A02EB8101C87404EB8400F7
:10550000114601EB8000C07CF0280DDA04EB84002A
:1055100001EB8000807C01280CD104EB840001EBBE
:105520008000C07C022805DB00BF00BF2046FFF7DB
:1055300095FF0EE004EB8400C84901EB8000807CFD
:10554000032806D1022004EB8401C44A02EB810146
:105550008874601CC4B20A2CBDDB70BD2DE9FE4FFF
:10556000064688464FF00A09CA460A27002400204A
:1055700002900190BB46009000BF6FE004EB8400F6
:10558000B64901EB8000857C0A2F04D11DB900BF0C
:1055900000BF67B260E0002D5ED000BF012D0AD0D1
:1055A000022D08DA00BFAFA340F22B12B7A1C7A0AB
:1055B00012F0F8F900BF00BF6EB104EB8401A74AF6
:1055C00002EB810130684968884204D100BF00BF06
:1055D00060B2BDE8FE8F012D2AD104EB84009F4903
:1055E00051F8200088B104EB840001EB8000C17CFD
:1055F0000098814230DB4FFA84FB04EB840097492A
:1056000001EB8000C07C009026E004EB840093490D
:1056100001EB8000C17C029881421DDB4FFA84F9C6
:1056200004EB84008D4901EB8000C07C029013E004
:10563000022D11DB04EB8400884901EB8000C17C62
:105640000198814208DB4FFA84FA04EB8400834915
:1056500001EB8000C07C0190601CC4B20A2C8DDB81
:1056600008F0020020B90A2F07D108F0010020B984
:1056700000BF00BF4FF0FF30ABE70A2F02DAFCB2E9
:1056800000BF3AE0BAF10A0F14DA0AF0FF0400BFD3
:1056900000BF00BF04EB8400704951F8200040B106
:1056A00000BF70A340F2711293A188A012F07AF9A2
:1056B00000BF12E0B9F10A0F03DA09F0FF0400BFDE
:1056C0000BE0BBF10A0F03DA0BF0FF0400BF04E0AC
:1056D00000BF00BF4FF0FF307BE700BF0A2C08DBA4
:1056E00000BF60A340F2831289A178A012F05AF99A
:1056F00000BF00BF2046FFF7B1FE00BF0A2C08DB49
:1057000000BF58A340F2871281A170A012F04AF99D
:1057100000BF00BF00BF04EB8400504901EB8000D4
:10572000807C40B100BF4FA34FF4C4727DA167A03D
:1057300012F038F900BF00BF36B104EB8401474ACC
:1057400002EB810130684860002004EB8401434A89
:1057500002EB8101C87460B23BE72DE9F0410446D9
:105760000E4617469846756800BF94F8260006282E
:1057700008D000BF3BA340F2A312754953A012F01A
:1057800011F900BF00BFD8F800002860B8F8040085
:10579000A8803868C5F80600B88868810820A88104
:1057A00000BF00BF31462046A2699047BDE8F081A6
:1057B0002DE9F04706460D461746984600BF96F875
:1057C0002600062808D000BF26A340F2C31261A11C
:1057D0003EA012F0E7F800BF00BF00BF00BF5DB100
:1057E000286848B13146286801F046FC20B928787D
:1057F00000F0F000E02805D100BF00BF6FF00D0001
:10580000BDE8F08741462846FFF7A8FE0446002C75
:1058100001DA2046F4E7022004EB84010F4A02EB90
:105820008101887404EB8400114601EB80008660DE
:1058300000BF00BF04EB840001EB80003968C16049
:10584000B9880182002004EB840102EB8101C87455
:1058500004EB8400114651F820008FE0ACBD00201D
:105860008A8101082E2E5C4C5749505C6C77697018
:105870002D312E342E315C7372635C6E65746966F3
:105880005C6574686172702E6300000073746174EB
:1058900065203D3D204554484152505F535441548A
:1058A000455F50454E44494E47207C7C20737461CF
:1058B0007465203E3D204554484152505F53544149
:1058C00054455F535441424C450000004173736599
:1058D0007274696F6E2022257322206661696C657F
:1058E00064206174206C696E6520256420696E20D7
:1058F00025730D0A000000006172705F7461626CB4
:10590000655B695D2E71203D3D204E554C4C00007D
:1059100069203C204152505F5441424C455F5349FD
:105920005A4500006172705F7461626C655B695D0D
:105930002E7374617465203D3D204554484152509A
:105940005F53544154455F454D5054590000000089
:10595000EC8401086E657469662D3E687761646445
:10596000725F6C656E203D3D204554484152505F4A
:105970004857414444525F4C454E000098B104EBF7
:10598000840051F82090002004EB840142F82100AB
:105990003B4606F1270249463046FFF7DEFE484601
:1059A00004F0E4FD00BF00202AE770B5054600249E
:1059B00012E004EB8400FE4901EB8000867C4EB1CE
:1059C00004EB840001EB80008068A84202D12046ED
:1059D000FFF744FD601CC4B20A2CEADB70BD2DE960
:1059E000F04180460F4615461E4600BF0DB1002E01
:1059F0000AD100BFAFF294134FF41872EDA1AFF2C9
:105A0000341011F0CFFF00BF00BF02213846FFF76E
:105A1000A5FD0446002C16DB04EB8400E44901EBF1
:105A20008000807C02280EDB04EB840001EB800008
:105A30000C30286004EB840001EB8000001D306016
:105A40002046BDE8F0814FF0FF30FAE72DE9FC4732
:105A500005468846164600BF65B900BFAFF2FC1385
:105A600040F2BB22DCA1AFF29C1011F09BFF00BF03
:105A7000BDE8FC8700BF70892A2805DA00BF00BF97
:105A8000304604F073FDF3E7776807F10E042088D1
:105A9000B0F5807F08D12079062805D160790428E7
:105AA00002D16088082805D000BF00BF304604F04E
:105AB0005DFDDDE7D4F80E000190A0690090281D7F
:105AC00008B1686810B94FF0000907E000986968EC
:105AD000884201D1012000E000208146B9F1000F89
